{
  "contractName": "Marketplace",
  "abi": [
    {
      "anonymous": false,
      "inputs": [
        {
          "indexed": false,
          "internalType": "uint256",
          "name": "id",
          "type": "uint256"
        },
        {
          "indexed": false,
          "internalType": "address",
          "name": "buyer",
          "type": "address"
        }
      ],
      "name": "ItemBought",
      "type": "event"
    },
    {
      "anonymous": false,
      "inputs": [
        {
          "indexed": false,
          "internalType": "uint256",
          "name": "id",
          "type": "uint256"
        },
        {
          "indexed": false,
          "internalType": "string",
          "name": "name",
          "type": "string"
        },
        {
          "indexed": false,
          "internalType": "uint256",
          "name": "price",
          "type": "uint256"
        },
        {
          "indexed": false,
          "internalType": "address",
          "name": "seller",
          "type": "address"
        }
      ],
      "name": "ItemListed",
      "type": "event"
    },
    {
      "inputs": [],
      "name": "itemCount",
      "outputs": [
        {
          "internalType": "uint256",
          "name": "",
          "type": "uint256"
        }
      ],
      "stateMutability": "view",
      "type": "function",
      "constant": true
    },
    {
      "inputs": [
        {
          "internalType": "uint256",
          "name": "",
          "type": "uint256"
        }
      ],
      "name": "items",
      "outputs": [
        {
          "internalType": "uint256",
          "name": "id",
          "type": "uint256"
        },
        {
          "internalType": "string",
          "name": "name",
          "type": "string"
        },
        {
          "internalType": "uint256",
          "name": "price",
          "type": "uint256"
        },
        {
          "internalType": "address payable",
          "name": "seller",
          "type": "address"
        },
        {
          "internalType": "address",
          "name": "buyer",
          "type": "address"
        },
        {
          "internalType": "bool",
          "name": "sold",
          "type": "bool"
        }
      ],
      "stateMutability": "view",
      "type": "function",
      "constant": true
    },
    {
      "inputs": [
        {
          "internalType": "string",
          "name": "_name",
          "type": "string"
        },
        {
          "internalType": "uint256",
          "name": "_price",
          "type": "uint256"
        }
      ],
      "name": "listItem",
      "outputs": [],
      "stateMutability": "nonpayable",
      "type": "function"
    },
    {
      "inputs": [
        {
          "internalType": "uint256",
          "name": "_id",
          "type": "uint256"
        }
      ],
      "name": "buyItem",
      "outputs": [],
      "stateMutability": "payable",
      "type": "function",
      "payable": true
    },
    {
      "inputs": [
        {
          "internalType": "uint256",
          "name": "_id",
          "type": "uint256"
        }
      ],
      "name": "getItem",
      "outputs": [
        {
          "components": [
            {
              "internalType": "uint256",
              "name": "id",
              "type": "uint256"
            },
            {
              "internalType": "string",
              "name": "name",
              "type": "string"
            },
            {
              "internalType": "uint256",
              "name": "price",
              "type": "uint256"
            },
            {
              "internalType": "address payable",
              "name": "seller",
              "type": "address"
            },
            {
              "internalType": "address",
              "name": "buyer",
              "type": "address"
            },
            {
              "internalType": "bool",
              "name": "sold",
              "type": "bool"
            }
          ],
          "internalType": "struct Marketplace.Item",
          "name": "",
          "type": "tuple"
        }
      ],
      "stateMutability": "view",
      "type": "function",
      "constant": true
    }
  ],
  "bytecode": "0x608060405234801561001057600080fd5b50611421806100206000396000f3fe60806040526004361061004a5760003560e01c80633129e7731461004f5780636bfb0d011461008c5780638511c937146100b7578063bfb231d2146100e0578063e7fb74c714610122575b600080fd5b34801561005b57600080fd5b5061007660048036038101906100719190610977565b61013e565b6040516100839190610b49565b60405180910390f35b34801561009857600080fd5b506100a1610329565b6040516100ae9190610b7a565b60405180910390f35b3480156100c357600080fd5b506100de60048036038101906100d99190610cca565b61032f565b005b3480156100ec57600080fd5b5061010760048036038101906101029190610977565b61051a565b60405161011996959493929190610d9d565b60405180910390f35b61013c60048036038101906101379190610977565b61062b565b005b6101466108c9565b60008211801561015857506000548211155b610197576040517f08c379a000000000000000000000000000000000000000000000000000000000815260040161018e90610e51565b60405180910390fd5b600160008381526020019081526020016000206040518060c0016040529081600082015481526020016001820180546101cf90610ea0565b80601f01602080910402602001604051908101604052809291908181526020018280546101fb90610ea0565b80156102485780601f1061021d57610100808354040283529160200191610248565b820191906000526020600020905b81548152906001019060200180831161022b57829003601f168201915b50505050508152602001600282015481526020016003820160009054906101000a900473ffffffffffffffffffffffffffffffffffffffff1673ffffffffffffffffffffffffffffffffffffffff1673ffffffffffffffffffffffffffffffffffffffff1681526020016004820160009054906101000a900473ffffffffffffffffffffffffffffffffffffffff1673ffffffffffffffffffffffffffffffffffffffff1673ffffffffffffffffffffffffffffffffffffffff1681526020016004820160149054906101000a900460ff1615151515815250509050919050565b60005481565b60008111610372576040517f08c379a000000000000000000000000000000000000000000000000000000000815260040161036990610f1d565b60405180910390fd5b60008081548092919061038490610f6c565b91905055506040518060c0016040528060005481526020018381526020018281526020013373ffffffffffffffffffffffffffffffffffffffff168152602001600073ffffffffffffffffffffffffffffffffffffffff16815260200160001515815250600160008054815260200190815260200160002060008201518160000155602082015181600101908161041b9190611160565b506040820151816002015560608201518160030160006101000a81548173ffffffffffffffffffffffffffffffffffffffff021916908373ffffffffffffffffffffffffffffffffffffffff16021790555060808201518160040160006101000a81548173ffffffffffffffffffffffffffffffffffffffff021916908373ffffffffffffffffffffffffffffffffffffffff16021790555060a08201518160040160146101000a81548160ff0219169083151502179055509050507f16244e47af8a7d2c923faa2cab44315c0514c7aa830682bbb9cc8f0d37ad754860005483833360405161050e9493929190611232565b60405180910390a15050565b600160205280600052604060002060009150905080600001549080600101805461054390610ea0565b80601f016020809104026020016040519081016040528092919081815260200182805461056f90610ea0565b80156105bc5780601f10610591576101008083540402835291602001916105bc565b820191906000526020600020905b81548152906001019060200180831161059f57829003601f168201915b5050505050908060020154908060030160009054906101000a900473ffffffffffffffffffffffffffffffffffffffff16908060040160009054906101000a900473ffffffffffffffffffffffffffffffffffffffff16908060040160149054906101000a900460ff16905086565b600060016000838152602001908152602001600020905060008211801561065457506000548211155b610693576040517f08c379a000000000000000000000000000000000000000000000000000000000815260040161068a90610e51565b60405180910390fd5b806002015434146106d9576040517f08c379a00000000000000000000000000000000000000000000000000000000081526004016106d0906112ca565b60405180910390fd5b3373ffffffffffffffffffffffffffffffffffffffff168160030160009054906101000a900473ffffffffffffffffffffffffffffffffffffffff1673ffffffffffffffffffffffffffffffffffffffff160361076b576040517f08c379a000000000000000000000000000000000000000000000000000000000815260040161076290611336565b60405180910390fd5b8060040160149054906101000a900460ff16156107bd576040517f08c379a00000000000000000000000000000000000000000000000000000000081526004016107b4906113a2565b60405180910390fd5b8060030160009054906101000a900473ffffffffffffffffffffffffffffffffffffffff1673ffffffffffffffffffffffffffffffffffffffff166108fc82600201549081150290604051600060405180830381858888f1935050505015801561082b573d6000803e3d6000fd5b50338160040160006101000a81548173ffffffffffffffffffffffffffffffffffffffff021916908373ffffffffffffffffffffffffffffffffffffffff16021790555060018160040160146101000a81548160ff0219169083151502179055507f0f9cbfaca7747e91d313d3856ce813b28768fb717ccf84591115f65aae74e49182336040516108bd9291906113c2565b60405180910390a15050565b6040518060c00160405280600081526020016060815260200160008152602001600073ffffffffffffffffffffffffffffffffffffffff168152602001600073ffffffffffffffffffffffffffffffffffffffff1681526020016000151581525090565b6000604051905090565b600080fd5b600080fd5b6000819050919050565b61095481610941565b811461095f57600080fd5b50565b6000813590506109718161094b565b92915050565b60006020828403121561098d5761098c610937565b5b600061099b84828501610962565b91505092915050565b6109ad81610941565b82525050565b600081519050919050565b600082825260208201905092915050565b60005b838110156109ed5780820151818401526020810190506109d2565b60008484015250505050565b6000601f19601f8301169050919050565b6000610a15826109b3565b610a1f81856109be565b9350610a2f8185602086016109cf565b610a38816109f9565b840191505092915050565b600073ffffffffffffffffffffffffffffffffffffffff82169050919050565b6000610a6e82610a43565b9050919050565b610a7e81610a63565b82525050565b6000610a8f82610a43565b9050919050565b610a9f81610a84565b82525050565b60008115159050919050565b610aba81610aa5565b82525050565b600060c083016000830151610ad860008601826109a4565b5060208301518482036020860152610af08282610a0a565b9150506040830151610b0560408601826109a4565b506060830151610b186060860182610a75565b506080830151610b2b6080860182610a96565b5060a0830151610b3e60a0860182610ab1565b508091505092915050565b60006020820190508181036000830152610b638184610ac0565b905092915050565b610b7481610941565b82525050565b6000602082019050610b8f6000830184610b6b565b92915050565b600080fd5b600080fd5b7f4e487b7100000000000000000000000000000000000000000000000000000000600052604160045260246000fd5b610bd7826109f9565b810181811067ffffffffffffffff82111715610bf657610bf5610b9f565b5b80604052505050565b6000610c0961092d565b9050610c158282610bce565b919050565b600067ffffffffffffffff821115610c3557610c34610b9f565b5b610c3e826109f9565b9050602081019050919050565b82818337600083830152505050565b6000610c6d610c6884610c1a565b610bff565b905082815260208101848484011115610c8957610c88610b9a565b5b610c94848285610c4b565b509392505050565b600082601f830112610cb157610cb0610b95565b5b8135610cc1848260208601610c5a565b91505092915050565b60008060408385031215610ce157610ce0610937565b5b600083013567ffffffffffffffff811115610cff57610cfe61093c565b5b610d0b85828601610c9c565b9250506020610d1c85828601610962565b9150509250929050565b600082825260208201905092915050565b6000610d42826109b3565b610d4c8185610d26565b9350610d5c8185602086016109cf565b610d65816109f9565b840191505092915050565b610d7981610a63565b82525050565b610d8881610a84565b82525050565b610d9781610aa5565b82525050565b600060c082019050610db26000830189610b6b565b8181036020830152610dc48188610d37565b9050610dd36040830187610b6b565b610de06060830186610d70565b610ded6080830185610d7f565b610dfa60a0830184610d8e565b979650505050505050565b7f496e76616c6964206974656d2049440000000000000000000000000000000000600082015250565b6000610e3b600f83610d26565b9150610e4682610e05565b602082019050919050565b60006020820190508181036000830152610e6a81610e2e565b9050919050565b7f4e487b7100000000000000000000000000000000000000000000000000000000600052602260045260246000fd5b60006002820490506001821680610eb857607f821691505b602082108103610ecb57610eca610e71565b5b50919050565b7f5072696365206d7573742062652067726561746572207468616e207a65726f00600082015250565b6000610f07601f83610d26565b9150610f1282610ed1565b602082019050919050565b60006020820190508181036000830152610f3681610efa565b9050919050565b7f4e487b7100000000000000000000000000000000000000000000000000000000600052601160045260246000fd5b6000610f7782610941565b91507fffffffffffffffffffffffffffffffffffffffffffffffffffffffffffffffff8203610fa957610fa8610f3d565b5b600182019050919050565b60008190508160005260206000209050919050565b60006020601f8301049050919050565b600082821b905092915050565b6000600883026110167fffffffffffffffffffffffffffffffffffffffffffffffffffffffffffffffff82610fd9565b6110208683610fd9565b95508019841693508086168417925050509392505050565b6000819050919050565b600061105d61105861105384610941565b611038565b610941565b9050919050565b6000819050919050565b61107783611042565b61108b61108382611064565b848454610fe6565b825550505050565b600090565b6110a0611093565b6110ab81848461106e565b505050565b5b818110156110cf576110c4600082611098565b6001810190506110b1565b5050565b601f821115611114576110e581610fb4565b6110ee84610fc9565b810160208510156110fd578190505b61111161110985610fc9565b8301826110b0565b50505b505050565b600082821c905092915050565b600061113760001984600802611119565b1980831691505092915050565b60006111508383611126565b9150826002028217905092915050565b611169826109b3565b67ffffffffffffffff81111561118257611181610b9f565b5b61118c8254610ea0565b6111978282856110d3565b600060209050601f8311600181146111ca57600084156111b8578287015190505b6111c28582611144565b86555061122a565b601f1984166111d886610fb4565b60005b82811015611200578489015182556001820191506020850194506020810190506111db565b8683101561121d5784890151611219601f891682611126565b8355505b6001600288020188555050505b505050505050565b60006080820190506112476000830187610b6b565b81810360208301526112598186610d37565b90506112686040830185610b6b565b6112756060830184610d7f565b95945050505050565b7f496e636f72726563742070726963652073656e74000000000000000000000000600082015250565b60006112b4601483610d26565b91506112bf8261127e565b602082019050919050565b600060208201905081810360008301526112e3816112a7565b9050919050565b7f53656c6c65722063616e6e6f7420627579207468656972206f776e206974656d600082015250565b6000611320602083610d26565b915061132b826112ea565b602082019050919050565b6000602082019050818103600083015261134f81611313565b9050919050565b7f4974656d20616c726561647920736f6c64000000000000000000000000000000600082015250565b600061138c601183610d26565b915061139782611356565b602082019050919050565b600060208201905081810360008301526113bb8161137f565b9050919050565b60006040820190506113d76000830185610b6b565b6113e46020830184610d7f565b939250505056fea2646970667358221220eee4d1e0de0a718c98d17c489b44377dfc93a09871a075dc99a6bfd51122d52264736f6c63430008130033",
  "immutableReferences": {},
  "source": "// SPDX-License-Identifier: MIT\r\npragma solidity ^0.8.0;\r\n\r\ncontract Marketplace {\r\n    struct Item {\r\n        uint id;\r\n        string name;\r\n        uint price; // Price in Wei\r\n        address payable seller;\r\n        address buyer;\r\n        bool sold;\r\n    }\r\n\r\n    uint public itemCount;\r\n    mapping(uint => Item) public items;\r\n\r\n    event ItemListed(uint id, string name, uint price, address seller);\r\n    event ItemBought(uint id, address buyer);\r\n\r\n    function listItem(string memory _name, uint _price) public {\r\n        require(_price > 0, \"Price must be greater than zero\");\r\n        itemCount++;\r\n        items[itemCount] = Item(itemCount, _name, _price, payable(msg.sender), address(0), false);\r\n        emit ItemListed(itemCount, _name, _price, msg.sender);\r\n    }\r\n\r\n    function buyItem(uint _id) public payable {\r\n        Item storage item = items[_id];\r\n        require(_id > 0 && _id <= itemCount, \"Invalid item ID\");\r\n        require(msg.value == item.price, \"Incorrect price sent\");\r\n        require(item.seller != msg.sender, \"Seller cannot buy their own item\");\r\n        require(!item.sold, \"Item already sold\");\r\n        item.seller.transfer(item.price);\r\n        item.buyer = msg.sender;\r\n        item.sold = true;\r\n        emit ItemBought(_id, msg.sender);\r\n    }\r\n\r\n    function getItem(uint _id) public view returns (Item memory) {\r\n        require(_id > 0 && _id <= itemCount, \"Invalid item ID\");\r\n        return items[_id];\r\n    }\r\n}\r\n",
  "sourcePath": "C:\\Users\\Varshith Chowdary\\Desktop\\BLOCKCHAIN\\tsk4\\decentralized-marketplace\\contracts\\Marketplace.sol",
  "compiler": {
    "name": "solc",
    "version": "0.8.19+commit.7dd6d404.Emscripten.clang"
  },
  "schemaVersion": "3.4.16",
  "updatedAt": "2024-11-21T02:12:01.211Z",
  "networkType": "ethereum",
  "devdoc": {
    "kind": "dev",
    "methods": {},
    "version": 1
  },
  "userdoc": {
    "kind": "user",
    "methods": {},
    "version": 1
  }
}