{
  "contractName": "Voting",
  "abi": [
    {
      "inputs": [],
      "stateMutability": "nonpayable",
      "type": "constructor"
    },
    {
      "anonymous": false,
      "inputs": [
        {
          "indexed": false,
          "internalType": "uint256",
          "name": "candidateId",
          "type": "uint256"
        },
        {
          "indexed": false,
          "internalType": "string",
          "name": "name",
          "type": "string"
        }
      ],
      "name": "CandidateAdded",
      "type": "event"
    },
    {
      "anonymous": false,
      "inputs": [
        {
          "indexed": false,
          "internalType": "address",
          "name": "voter",
          "type": "address"
        },
        {
          "indexed": false,
          "internalType": "uint256",
          "name": "candidateId",
          "type": "uint256"
        }
      ],
      "name": "Voted",
      "type": "event"
    },
    {
      "inputs": [
        {
          "internalType": "uint256",
          "name": "",
          "type": "uint256"
        }
      ],
      "name": "candidates",
      "outputs": [
        {
          "internalType": "uint256",
          "name": "id",
          "type": "uint256"
        },
        {
          "internalType": "string",
          "name": "name",
          "type": "string"
        },
        {
          "internalType": "uint256",
          "name": "voteCount",
          "type": "uint256"
        }
      ],
      "stateMutability": "view",
      "type": "function",
      "constant": true
    },
    {
      "inputs": [],
      "name": "candidatesCount",
      "outputs": [
        {
          "internalType": "uint256",
          "name": "",
          "type": "uint256"
        }
      ],
      "stateMutability": "view",
      "type": "function",
      "constant": true
    },
    {
      "inputs": [],
      "name": "owner",
      "outputs": [
        {
          "internalType": "address",
          "name": "",
          "type": "address"
        }
      ],
      "stateMutability": "view",
      "type": "function",
      "constant": true
    },
    {
      "inputs": [
        {
          "internalType": "address",
          "name": "",
          "type": "address"
        }
      ],
      "name": "voters",
      "outputs": [
        {
          "internalType": "bool",
          "name": "hasVoted",
          "type": "bool"
        },
        {
          "internalType": "uint256",
          "name": "candidateId",
          "type": "uint256"
        }
      ],
      "stateMutability": "view",
      "type": "function",
      "constant": true
    },
    {
      "inputs": [
        {
          "internalType": "string",
          "name": "_name",
          "type": "string"
        }
      ],
      "name": "addCandidate",
      "outputs": [],
      "stateMutability": "nonpayable",
      "type": "function"
    },
    {
      "inputs": [
        {
          "internalType": "uint256",
          "name": "_candidateId",
          "type": "uint256"
        }
      ],
      "name": "vote",
      "outputs": [],
      "stateMutability": "nonpayable",
      "type": "function"
    },
    {
      "inputs": [
        {
          "internalType": "uint256",
          "name": "_candidateId",
          "type": "uint256"
        }
      ],
      "name": "getCandidate",
      "outputs": [
        {
          "internalType": "string",
          "name": "name",
          "type": "string"
        },
        {
          "internalType": "uint256",
          "name": "voteCount",
          "type": "uint256"
        }
      ],
      "stateMutability": "view",
      "type": "function",
      "constant": true
    }
  ],
  "bytecode": "0x608060405234801561001057600080fd5b50336000806101000a81548173ffffffffffffffffffffffffffffffffffffffff021916908373ffffffffffffffffffffffffffffffffffffffff160217905550610feb806100606000396000f3fe608060405234801561001057600080fd5b506004361061007d5760003560e01c806335b8e8201161005b57806335b8e820146100ee578063462e91ec1461011f5780638da5cb5b1461013b578063a3ec138d146101595761007d565b80630121b93f146100825780632d35a8a21461009e5780633477ee2e146100bc575b600080fd5b61009c600480360381019061009791906106d1565b61018a565b005b6100a6610357565b6040516100b3919061070d565b60405180910390f35b6100d660048036038101906100d191906106d1565b61035d565b6040516100e5939291906107b8565b60405180910390f35b610108600480360381019061010391906106d1565b61040f565b6040516101169291906107f6565b60405180910390f35b6101396004803603810190610134919061095b565b6104ee565b005b610143610632565b60405161015091906109e5565b60405180910390f35b610173600480360381019061016e9190610a2c565b610656565b604051610181929190610a74565b60405180910390f35b600160003373ffffffffffffffffffffffffffffffffffffffff1673ffffffffffffffffffffffffffffffffffffffff16815260200190815260200160002060000160009054906101000a900460ff161561021a576040517f08c379a000000000000000000000000000000000000000000000000000000000815260040161021190610ae9565b60405180910390fd5b60008111801561022c57506003548111155b61026b576040517f08c379a000000000000000000000000000000000000000000000000000000000815260040161026290610b55565b60405180910390fd5b604051806040016040528060011515815260200182815250600160003373ffffffffffffffffffffffffffffffffffffffff1673ffffffffffffffffffffffffffffffffffffffff16815260200190815260200160002060008201518160000160006101000a81548160ff0219169083151502179055506020820151816001015590505060026000828152602001908152602001600020600201600081548092919061031690610ba4565b91905055507f4d99b957a2bc29a30ebd96a7be8e68fe50a3c701db28a91436490b7d53870ca4338260405161034c929190610bec565b60405180910390a150565b60035481565b600260205280600052604060002060009150905080600001549080600101805461038690610c44565b80601f01602080910402602001604051908101604052809291908181526020018280546103b290610c44565b80156103ff5780601f106103d4576101008083540402835291602001916103ff565b820191906000526020600020905b8154815290600101906020018083116103e257829003601f168201915b5050505050908060020154905083565b6060600080600260008581526020019081526020016000206040518060600160405290816000820154815260200160018201805461044c90610c44565b80601f016020809104026020016040519081016040528092919081815260200182805461047890610c44565b80156104c55780601f1061049a576101008083540402835291602001916104c5565b820191906000526020600020905b8154815290600101906020018083116104a857829003601f168201915b505050505081526020016002820154815250509050806020015181604001519250925050915091565b60008054906101000a900473ffffffffffffffffffffffffffffffffffffffff1673ffffffffffffffffffffffffffffffffffffffff163373ffffffffffffffffffffffffffffffffffffffff161461057c576040517f08c379a000000000000000000000000000000000000000000000000000000000815260040161057390610ce7565b60405180910390fd5b6003600081548092919061058f90610ba4565b91905055506040518060600160405280600354815260200182815260200160008152506002600060035481526020019081526020016000206000820151816000015560208201518160010190816105e69190610eb3565b50604082015181600201559050507fe83b2a43e7e82d975c8a0a6d2f045153c869e111136a34d1889ab7b598e396a360035482604051610627929190610f85565b60405180910390a150565b60008054906101000a900473ffffffffffffffffffffffffffffffffffffffff1681565b60016020528060005260406000206000915090508060000160009054906101000a900460ff16908060010154905082565b6000604051905090565b600080fd5b600080fd5b6000819050919050565b6106ae8161069b565b81146106b957600080fd5b50565b6000813590506106cb816106a5565b92915050565b6000602082840312156106e7576106e6610691565b5b60006106f5848285016106bc565b91505092915050565b6107078161069b565b82525050565b600060208201905061072260008301846106fe565b92915050565b600081519050919050565b600082825260208201905092915050565b60005b83811015610762578082015181840152602081019050610747565b60008484015250505050565b6000601f19601f8301169050919050565b600061078a82610728565b6107948185610733565b93506107a4818560208601610744565b6107ad8161076e565b840191505092915050565b60006060820190506107cd60008301866106fe565b81810360208301526107df818561077f565b90506107ee60408301846106fe565b949350505050565b60006040820190508181036000830152610810818561077f565b905061081f60208301846106fe565b9392505050565b600080fd5b600080fd5b7f4e487b7100000000000000000000000000000000000000000000000000000000600052604160045260246000fd5b6108688261076e565b810181811067ffffffffffffffff8211171561088757610886610830565b5b80604052505050565b600061089a610687565b90506108a6828261085f565b919050565b600067ffffffffffffffff8211156108c6576108c5610830565b5b6108cf8261076e565b9050602081019050919050565b82818337600083830152505050565b60006108fe6108f9846108ab565b610890565b90508281526020810184848401111561091a5761091961082b565b5b6109258482856108dc565b509392505050565b600082601f83011261094257610941610826565b5b81356109528482602086016108eb565b91505092915050565b60006020828403121561097157610970610691565b5b600082013567ffffffffffffffff81111561098f5761098e610696565b5b61099b8482850161092d565b91505092915050565b600073ffffffffffffffffffffffffffffffffffffffff82169050919050565b60006109cf826109a4565b9050919050565b6109df816109c4565b82525050565b60006020820190506109fa60008301846109d6565b92915050565b610a09816109c4565b8114610a1457600080fd5b50565b600081359050610a2681610a00565b92915050565b600060208284031215610a4257610a41610691565b5b6000610a5084828501610a17565b91505092915050565b60008115159050919050565b610a6e81610a59565b82525050565b6000604082019050610a896000830185610a65565b610a9660208301846106fe565b9392505050565b7f596f75206861766520616c726561647920766f74656400000000000000000000600082015250565b6000610ad3601683610733565b9150610ade82610a9d565b602082019050919050565b60006020820190508181036000830152610b0281610ac6565b9050919050565b7f496e76616c69642063616e646964617465000000000000000000000000000000600082015250565b6000610b3f601183610733565b9150610b4a82610b09565b602082019050919050565b60006020820190508181036000830152610b6e81610b32565b9050919050565b7f4e487b7100000000000000000000000000000000000000000000000000000000600052601160045260246000fd5b6000610baf8261069b565b91507fffffffffffffffffffffffffffffffffffffffffffffffffffffffffffffffff8203610be157610be0610b75565b5b600182019050919050565b6000604082019050610c0160008301856109d6565b610c0e60208301846106fe565b9392505050565b7f4e487b7100000000000000000000000000000000000000000000000000000000600052602260045260246000fd5b60006002820490506001821680610c5c57607f821691505b602082108103610c6f57610c6e610c15565b5b50919050565b7f4f6e6c7920746865206f776e65722063616e20706572666f726d20746869732060008201527f616374696f6e0000000000000000000000000000000000000000000000000000602082015250565b6000610cd1602683610733565b9150610cdc82610c75565b604082019050919050565b60006020820190508181036000830152610d0081610cc4565b9050919050565b60008190508160005260206000209050919050565b60006020601f8301049050919050565b600082821b905092915050565b600060088302610d697fffffffffffffffffffffffffffffffffffffffffffffffffffffffffffffffff82610d2c565b610d738683610d2c565b95508019841693508086168417925050509392505050565b6000819050919050565b6000610db0610dab610da68461069b565b610d8b565b61069b565b9050919050565b6000819050919050565b610dca83610d95565b610dde610dd682610db7565b848454610d39565b825550505050565b600090565b610df3610de6565b610dfe818484610dc1565b505050565b5b81811015610e2257610e17600082610deb565b600181019050610e04565b5050565b601f821115610e6757610e3881610d07565b610e4184610d1c565b81016020851015610e50578190505b610e64610e5c85610d1c565b830182610e03565b50505b505050565b600082821c905092915050565b6000610e8a60001984600802610e6c565b1980831691505092915050565b6000610ea38383610e79565b9150826002028217905092915050565b610ebc82610728565b67ffffffffffffffff811115610ed557610ed4610830565b5b610edf8254610c44565b610eea828285610e26565b600060209050601f831160018114610f1d5760008415610f0b578287015190505b610f158582610e97565b865550610f7d565b601f198416610f2b86610d07565b60005b82811015610f5357848901518255600182019150602085019450602081019050610f2e565b86831015610f705784890151610f6c601f891682610e79565b8355505b6001600288020188555050505b505050505050565b6000604082019050610f9a60008301856106fe565b8181036020830152610fac818461077f565b9050939250505056fea2646970667358221220f434a4318f558bc826fc00284edfce6827207aa620b9bb1bd61a41f155a914d464736f6c63430008130033",
  "immutableReferences": {},
  "source": "// SPDX-License-Identifier: MIT\r\npragma solidity ^0.8.0;\r\n\r\ncontract Voting {\r\n    struct Candidate {\r\n        uint id;\r\n        string name;\r\n        uint voteCount;\r\n    }\r\n\r\n    struct Voter {\r\n        bool hasVoted;\r\n        uint candidateId;\r\n    }\r\n\r\n    address public owner;\r\n    mapping(address => Voter) public voters;\r\n    mapping(uint => Candidate) public candidates;\r\n    uint public candidatesCount;\r\n\r\n    event CandidateAdded(uint candidateId, string name);\r\n    event Voted(address voter, uint candidateId);\r\n\r\n    modifier onlyOwner() {\r\n        require(msg.sender == owner, \"Only the owner can perform this action\");\r\n        _;\r\n    }\r\n\r\n    constructor() {\r\n        owner = msg.sender;\r\n    }\r\n\r\n    function addCandidate(string memory _name) public onlyOwner {\r\n        candidatesCount++;\r\n        candidates[candidatesCount] = Candidate(candidatesCount, _name, 0);\r\n        emit CandidateAdded(candidatesCount, _name);\r\n    }\r\n\r\n    function vote(uint _candidateId) public {\r\n        require(!voters[msg.sender].hasVoted, \"You have already voted\");\r\n        require(_candidateId > 0 && _candidateId <= candidatesCount, \"Invalid candidate\");\r\n\r\n        voters[msg.sender] = Voter(true, _candidateId);\r\n        candidates[_candidateId].voteCount++;\r\n\r\n        emit Voted(msg.sender, _candidateId);\r\n    }\r\n\r\n    function getCandidate(uint _candidateId) public view returns (string memory name, uint voteCount) {\r\n        Candidate memory candidate = candidates[_candidateId];\r\n        return (candidate.name, candidate.voteCount);\r\n    }\r\n}\r\n",
  "sourcePath": "C:\\Users\\Varshith Chowdary\\Desktop\\BLOCKCHAIN\\task3\\contracts\\Voting.sol",
  "compiler": {
    "name": "solc",
    "version": "0.8.19+commit.7dd6d404.Emscripten.clang"
  },
  "schemaVersion": "3.4.16",
  "updatedAt": "2024-11-21T01:44:49.297Z",
  "networkType": "ethereum",
  "devdoc": {
    "kind": "dev",
    "methods": {},
    "version": 1
  },
  "userdoc": {
    "kind": "user",
    "methods": {},
    "version": 1
  }
}